{
  "contractName": "DigiBlog",
  "abi": [
    {
      "inputs": [],
      "stateMutability": "nonpayable",
      "type": "constructor"
    },
    {
      "inputs": [],
      "name": "contract_name",
      "outputs": [
        {
          "internalType": "string",
          "name": "",
          "type": "string"
        }
      ],
      "stateMutability": "view",
      "type": "function",
      "constant": true
    },
    {
      "inputs": [
        {
          "internalType": "address",
          "name": "",
          "type": "address"
        }
      ],
      "name": "user_info",
      "outputs": [
        {
          "internalType": "string",
          "name": "firstname",
          "type": "string"
        },
        {
          "internalType": "string",
          "name": "lastname",
          "type": "string"
        },
        {
          "internalType": "string",
          "name": "username",
          "type": "string"
        },
        {
          "internalType": "string",
          "name": "avatar",
          "type": "string"
        },
        {
          "internalType": "uint256",
          "name": "no_blogs",
          "type": "uint256"
        },
        {
          "internalType": "string",
          "name": "bio",
          "type": "string"
        }
      ],
      "stateMutability": "view",
      "type": "function",
      "constant": true
    },
    {
      "inputs": [
        {
          "internalType": "address",
          "name": "",
          "type": "address"
        }
      ],
      "name": "users",
      "outputs": [
        {
          "internalType": "bool",
          "name": "",
          "type": "bool"
        }
      ],
      "stateMutability": "view",
      "type": "function",
      "constant": true
    },
    {
      "inputs": [],
      "name": "login",
      "outputs": [
        {
          "internalType": "bool",
          "name": "",
          "type": "bool"
        }
      ],
      "stateMutability": "view",
      "type": "function",
      "constant": true
    },
    {
      "inputs": [
        {
          "internalType": "address",
          "name": "user_address",
          "type": "address"
        },
        {
          "internalType": "string",
          "name": "firstname",
          "type": "string"
        },
        {
          "internalType": "string",
          "name": "lastname",
          "type": "string"
        },
        {
          "internalType": "string",
          "name": "username",
          "type": "string"
        }
      ],
      "name": "signUp",
      "outputs": [],
      "stateMutability": "nonpayable",
      "type": "function"
    },
    {
      "inputs": [],
      "name": "getUserInfo",
      "outputs": [
        {
          "components": [
            {
              "internalType": "string",
              "name": "firstname",
              "type": "string"
            },
            {
              "internalType": "string",
              "name": "lastname",
              "type": "string"
            },
            {
              "internalType": "string",
              "name": "username",
              "type": "string"
            },
            {
              "internalType": "string",
              "name": "avatar",
              "type": "string"
            },
            {
              "internalType": "uint256",
              "name": "no_blogs",
              "type": "uint256"
            },
            {
              "internalType": "string",
              "name": "bio",
              "type": "string"
            }
          ],
          "internalType": "struct DigiBlog.User",
          "name": "",
          "type": "tuple"
        }
      ],
      "stateMutability": "view",
      "type": "function",
      "constant": true
    },
    {
      "inputs": [
        {
          "internalType": "string",
          "name": "firstname",
          "type": "string"
        },
        {
          "internalType": "string",
          "name": "lastname",
          "type": "string"
        },
        {
          "internalType": "string",
          "name": "bio",
          "type": "string"
        },
        {
          "internalType": "string",
          "name": "avatar",
          "type": "string"
        }
      ],
      "name": "editProfile",
      "outputs": [],
      "stateMutability": "nonpayable",
      "type": "function"
    },
    {
      "inputs": [
        {
          "internalType": "address",
          "name": "user_address",
          "type": "address"
        }
      ],
      "name": "getFullName",
      "outputs": [
        {
          "internalType": "string",
          "name": "",
          "type": "string"
        }
      ],
      "stateMutability": "view",
      "type": "function",
      "constant": true
    },
    {
      "inputs": [
        {
          "internalType": "address",
          "name": "user",
          "type": "address"
        },
        {
          "internalType": "string",
          "name": "title",
          "type": "string"
        },
        {
          "internalType": "string",
          "name": "body",
          "type": "string"
        },
        {
          "internalType": "string",
          "name": "image",
          "type": "string"
        }
      ],
      "name": "createBlog",
      "outputs": [],
      "stateMutability": "nonpayable",
      "type": "function"
    },
    {
      "inputs": [
        {
          "internalType": "uint256",
          "name": "id",
          "type": "uint256"
        }
      ],
      "name": "deleteBlog",
      "outputs": [],
      "stateMutability": "nonpayable",
      "type": "function"
    },
    {
      "inputs": [
        {
          "internalType": "uint256",
          "name": "id",
          "type": "uint256"
        }
      ],
      "name": "getBlogInfo",
      "outputs": [
        {
          "components": [
            {
              "internalType": "uint256",
              "name": "id",
              "type": "uint256"
            },
            {
              "internalType": "address",
              "name": "blogger_address",
              "type": "address"
            },
            {
              "internalType": "string",
              "name": "title",
              "type": "string"
            },
            {
              "internalType": "string",
              "name": "body",
              "type": "string"
            },
            {
              "internalType": "string",
              "name": "image",
              "type": "string"
            },
            {
              "internalType": "uint256",
              "name": "date",
              "type": "uint256"
            }
          ],
          "internalType": "struct DigiBlog.Blog",
          "name": "",
          "type": "tuple"
        }
      ],
      "stateMutability": "view",
      "type": "function",
      "constant": true
    },
    {
      "inputs": [],
      "name": "getAllBlogs",
      "outputs": [
        {
          "internalType": "uint256[]",
          "name": "",
          "type": "uint256[]"
        }
      ],
      "stateMutability": "view",
      "type": "function",
      "constant": true
    },
    {
      "inputs": [],
      "name": "getUserBlogs",
      "outputs": [
        {
          "internalType": "uint256[]",
          "name": "",
          "type": "uint256[]"
        }
      ],
      "stateMutability": "view",
      "type": "function",
      "constant": true
    },
    {
      "inputs": [
        {
          "internalType": "uint256",
          "name": "id",
          "type": "uint256"
        },
        {
          "internalType": "address",
          "name": "user",
          "type": "address"
        },
        {
          "internalType": "string",
          "name": "title",
          "type": "string"
        },
        {
          "internalType": "string",
          "name": "body",
          "type": "string"
        },
        {
          "internalType": "string",
          "name": "image",
          "type": "string"
        }
      ],
      "name": "editBlog",
      "outputs": [],
      "stateMutability": "nonpayable",
      "type": "function"
    }
  ],
  "bytecode": "0x608060405260006003553480156200001657600080fd5b506040518060400160405280600881526020017f44696769426c6f6700000000000000000000000000000000000000000000000081525060009080519060200190620000649291906200006b565b506200017f565b82805462000079906200014a565b90600052602060002090601f0160209004810192826200009d5760008555620000e9565b82601f10620000b857805160ff1916838001178555620000e9565b82800160010185558215620000e9579182015b82811115620000e8578251825591602001919060010190620000cb565b5b509050620000f89190620000fc565b5090565b5b8082111562000117576000816000905550600101620000fd565b5090565b7f4e487b7100000000000000000000000000000000000000000000000000000000600052602260045260246000fd5b600060028204905060018216806200016357607f821691505b6020821081036200017957620001786200011b565b5b50919050565b612bbe806200018f6000396000f3fe608060405234801561001057600080fd5b50600436106100ea5760003560e01c8063c4c747001161008c578063ebf5ff6f11610066578063ebf5ff6f1461023c578063f2f35ff51461025a578063fa981b861461028a578063ff33fb13146102ba576100ea565b8063c4c74700146101e4578063d947969214610202578063e0e9fe7314610220576100ea565b80635d8d1585116100c85780635d8d15851461015c578063a87430ba1461017a578063af21c8b2146101aa578063b34e97e8146101c6576100ea565b80630be8f29a146100ef57806321058d2a1461010b5780633e3a648d14610140575b600080fd5b61010960048036038101906101049190611f2a565b6102d6565b005b61012560048036038101906101209190611fe5565b61055e565b604051610137969594939291906120b3565b60405180910390f35b61015a60048036038101906101559190612137565b610842565b005b610164610a30565b604051610171919061230c565b60405180910390f35b610194600480360381019061018f9190611fe5565b610df7565b6040516101a19190612349565b60405180910390f35b6101c460048036038101906101bf9190612390565b610e17565b005b6101ce610f40565b6040516101db9190612349565b60405180910390f35b6101ec610f94565b6040516101f9919061246c565b60405180910390f35b61020a611029565b604051610217919061248e565b60405180910390f35b61023a60048036038101906102359190611f2a565b6110b7565b005b61024461143f565b604051610251919061246c565b60405180910390f35b610274600480360381019061026f9190611fe5565b611560565b604051610281919061248e565b60405180910390f35b6102a4600480360381019061029f9190612390565b6116c1565b6040516102b19190612556565b60405180910390f35b6102d460048036038101906102cf9190612578565b61196e565b005b600073ffffffffffffffffffffffffffffffffffffffff168473ffffffffffffffffffffffffffffffffffffffff1603610345576040517f08c379a000000000000000000000000000000000000000000000000000000000815260040161033c90612693565b60405180910390fd5b600160008573ffffffffffffffffffffffffffffffffffffffff1673ffffffffffffffffffffffffffffffffffffffff16815260200190815260200160002060009054906101000a900460ff16156103d2576040517f08c379a00000000000000000000000000000000000000000000000000000000081526004016103c9906126ff565b60405180910390fd5b60018060008673ffffffffffffffffffffffffffffffffffffffff1673ffffffffffffffffffffffffffffffffffffffff16815260200190815260200160002060006101000a81548160ff02191690831515021790555060006040518060c001604052808581526020018481526020018381526020016040518060200160405280600081525081526020016000815260200160405180602001604052806000815250815250905080600260008773ffffffffffffffffffffffffffffffffffffffff1673ffffffffffffffffffffffffffffffffffffffff16815260200190815260200160002060008201518160000190805190602001906104d5929190611c4d565b5060208201518160010190805190602001906104f2929190611c4d565b50604082015181600201908051906020019061050f929190611c4d565b50606082015181600301908051906020019061052c929190611c4d565b506080820151816004015560a0820151816005019080519060200190610553929190611c4d565b509050505050505050565b60026020528060005260406000206000915090508060000180546105819061274e565b80601f01602080910402602001604051908101604052809291908181526020018280546105ad9061274e565b80156105fa5780601f106105cf576101008083540402835291602001916105fa565b820191906000526020600020905b8154815290600101906020018083116105dd57829003601f168201915b50505050509080600101805461060f9061274e565b80601f016020809104026020016040519081016040528092919081815260200182805461063b9061274e565b80156106885780601f1061065d57610100808354040283529160200191610688565b820191906000526020600020905b81548152906001019060200180831161066b57829003601f168201915b50505050509080600201805461069d9061274e565b80601f01602080910402602001604051908101604052809291908181526020018280546106c99061274e565b80156107165780601f106106eb57610100808354040283529160200191610716565b820191906000526020600020905b8154815290600101906020018083116106f957829003601f168201915b50505050509080600301805461072b9061274e565b80601f01602080910402602001604051908101604052809291908181526020018280546107579061274e565b80156107a45780601f10610779576101008083540402835291602001916107a4565b820191906000526020600020905b81548152906001019060200180831161078757829003601f168201915b5050505050908060040154908060050180546107bf9061274e565b80601f01602080910402602001604051908101604052809291908181526020018280546107eb9061274e565b80156108385780601f1061080d57610100808354040283529160200191610838565b820191906000526020600020905b81548152906001019060200180831161081b57829003601f168201915b5050505050905086565b600160003373ffffffffffffffffffffffffffffffffffffffff1673ffffffffffffffffffffffffffffffffffffffff16815260200190815260200160002060009054906101000a900460ff166108ce576040517f08c379a00000000000000000000000000000000000000000000000000000000081526004016108c5906127cb565b60405180910390fd5b83600260003373ffffffffffffffffffffffffffffffffffffffff1673ffffffffffffffffffffffffffffffffffffffff1681526020019081526020016000206000019080519060200190610924929190611c4d565b5082600260003373ffffffffffffffffffffffffffffffffffffffff1673ffffffffffffffffffffffffffffffffffffffff168152602001908152602001600020600101908051906020019061097b929190611c4d565b5081600260003373ffffffffffffffffffffffffffffffffffffffff1673ffffffffffffffffffffffffffffffffffffffff16815260200190815260200160002060050190805190602001906109d2929190611c4d565b5080600260003373ffffffffffffffffffffffffffffffffffffffff1673ffffffffffffffffffffffffffffffffffffffff1681526020019081526020016000206003019080519060200190610a29929190611c4d565b5050505050565b610a38611cd3565b600160003373ffffffffffffffffffffffffffffffffffffffff1673ffffffffffffffffffffffffffffffffffffffff16815260200190815260200160002060009054906101000a900460ff16610ac4576040517f08c379a0000000000000000000000000000000000000000000000000000000008152600401610abb906127cb565b60405180910390fd5b600260003373ffffffffffffffffffffffffffffffffffffffff1673ffffffffffffffffffffffffffffffffffffffff1681526020019081526020016000206040518060c0016040529081600082018054610b1e9061274e565b80601f0160208091040260200160405190810160405280929190818152602001828054610b4a9061274e565b8015610b975780601f10610b6c57610100808354040283529160200191610b97565b820191906000526020600020905b815481529060010190602001808311610b7a57829003601f168201915b50505050508152602001600182018054610bb09061274e565b80601f0160208091040260200160405190810160405280929190818152602001828054610bdc9061274e565b8015610c295780601f10610bfe57610100808354040283529160200191610c29565b820191906000526020600020905b815481529060010190602001808311610c0c57829003601f168201915b50505050508152602001600282018054610c429061274e565b80601f0160208091040260200160405190810160405280929190818152602001828054610c6e9061274e565b8015610cbb5780601f10610c9057610100808354040283529160200191610cbb565b820191906000526020600020905b815481529060010190602001808311610c9e57829003601f168201915b50505050508152602001600382018054610cd49061274e565b80601f0160208091040260200160405190810160405280929190818152602001828054610d009061274e565b8015610d4d5780601f10610d2257610100808354040283529160200191610d4d565b820191906000526020600020905b815481529060010190602001808311610d3057829003601f168201915b5050505050815260200160048201548152602001600582018054610d709061274e565b80601f0160208091040260200160405190810160405280929190818152602001828054610d9c9061274e565b8015610de95780601f10610dbe57610100808354040283529160200191610de9565b820191906000526020600020905b815481529060010190602001808311610dcc57829003601f168201915b505050505081525050905090565b60016020528060005260406000206000915054906101000a900460ff1681565b60006005600083815260200190815260200160002060010160009054906101000a900473ffffffffffffffffffffffffffffffffffffffff169050610e9a82600660008073ffffffffffffffffffffffffffffffffffffffff1673ffffffffffffffffffffffffffffffffffffffff168152602001908152602001600020611b86565b610ee282600660008473ffffffffffffffffffffffffffffffffffffffff1673ffffffffffffffffffffffffffffffffffffffff168152602001908152602001600020611b86565b6001600260008373ffffffffffffffffffffffffffffffffffffffff1673ffffffffffffffffffffffffffffffffffffffff1681526020019081526020016000206004016000828254610f35919061281a565b925050819055505050565b6000600160003373ffffffffffffffffffffffffffffffffffffffff1673ffffffffffffffffffffffffffffffffffffffff16815260200190815260200160002060009054906101000a900460ff16905090565b6060600660008073ffffffffffffffffffffffffffffffffffffffff1673ffffffffffffffffffffffffffffffffffffffff16815260200190815260200160002080548060200260200160405190810160405280929190818152602001828054801561101f57602002820191906000526020600020905b81548152602001906001019080831161100b575b5050505050905090565b600080546110369061274e565b80601f01602080910402602001604051908101604052809291908181526020018280546110629061274e565b80156110af5780601f10611084576101008083540402835291602001916110af565b820191906000526020600020905b81548152906001019060200180831161109257829003601f168201915b505050505081565b600073ffffffffffffffffffffffffffffffffffffffff168473ffffffffffffffffffffffffffffffffffffffff1603611126576040517f08c379a000000000000000000000000000000000000000000000000000000000815260040161111d90612693565b60405180910390fd5b600160008573ffffffffffffffffffffffffffffffffffffffff1673ffffffffffffffffffffffffffffffffffffffff16815260200190815260200160002060009054906101000a900460ff166111b2576040517f08c379a00000000000000000000000000000000000000000000000000000000081526004016111a9906127cb565b60405180910390fd5b6001600360008282546111c5919061284e565b9250508190555060006040518060c0016040528060035481526020018673ffffffffffffffffffffffffffffffffffffffff168152602001858152602001848152602001838152602001428152509050600660008073ffffffffffffffffffffffffffffffffffffffff1673ffffffffffffffffffffffffffffffffffffffff1681526020019081526020016000206003549080600181540180825580915050600190039060005260206000200160009091909190915055806005600060035481526020019081526020016000206000820151816000015560208201518160010160006101000a81548173ffffffffffffffffffffffffffffffffffffffff021916908373ffffffffffffffffffffffffffffffffffffffff1602179055506040820151816002019080519060200190611300929190611c4d565b50606082015181600301908051906020019061131d929190611c4d565b50608082015181600401908051906020019061133a929190611c4d565b5060a08201518160050155905050600660008673ffffffffffffffffffffffffffffffffffffffff1673ffffffffffffffffffffffffffffffffffffffff1681526020019081526020016000206003549080600181540180825580915050600190039060005260206000200160009091909190915055600160046000600354815260200190815260200160002060006101000a81548160ff0219169083151502179055506001600260008773ffffffffffffffffffffffffffffffffffffffff1673ffffffffffffffffffffffffffffffffffffffff1681526020019081526020016000206004016000828254611431919061284e565b925050819055505050505050565b6060600160003373ffffffffffffffffffffffffffffffffffffffff1673ffffffffffffffffffffffffffffffffffffffff16815260200190815260200160002060009054906101000a900460ff166114cd576040517f08c379a00000000000000000000000000000000000000000000000000000000081526004016114c4906127cb565b60405180910390fd5b600660003373ffffffffffffffffffffffffffffffffffffffff1673ffffffffffffffffffffffffffffffffffffffff16815260200190815260200160002080548060200260200160405190810160405280929190818152602001828054801561155657602002820191906000526020600020905b815481526020019060010190808311611542575b5050505050905090565b6060600160008373ffffffffffffffffffffffffffffffffffffffff1673ffffffffffffffffffffffffffffffffffffffff16815260200190815260200160002060009054906101000a900460ff166115ee576040517f08c379a00000000000000000000000000000000000000000000000000000000081526004016115e5906127cb565b60405180910390fd5b6000600260008473ffffffffffffffffffffffffffffffffffffffff1673ffffffffffffffffffffffffffffffffffffffff1681526020019081526020016000206000016040516020016116429190612969565b604051602081830303815290604052905080600260008573ffffffffffffffffffffffffffffffffffffffff1673ffffffffffffffffffffffffffffffffffffffff1681526020019081526020016000206001016040516020016116a79291906129c0565b604051602081830303815290604052905080915050919050565b6116c9611d09565b6004600083815260200190815260200160002060009054906101000a900460ff16611729576040517f08c379a000000000000000000000000000000000000000000000000000000000815260040161172090612a30565b60405180910390fd5b600560008381526020019081526020016000206040518060c0016040529081600082015481526020016001820160009054906101000a900473ffffffffffffffffffffffffffffffffffffffff1673ffffffffffffffffffffffffffffffffffffffff1673ffffffffffffffffffffffffffffffffffffffff1681526020016002820180546117b79061274e565b80601f01602080910402602001604051908101604052809291908181526020018280546117e39061274e565b80156118305780601f1061180557610100808354040283529160200191611830565b820191906000526020600020905b81548152906001019060200180831161181357829003601f168201915b505050505081526020016003820180546118499061274e565b80601f01602080910402602001604051908101604052809291908181526020018280546118759061274e565b80156118c25780601f10611897576101008083540402835291602001916118c2565b820191906000526020600020905b8154815290600101906020018083116118a557829003601f168201915b505050505081526020016004820180546118db9061274e565b80601f01602080910402602001604051908101604052809291908181526020018280546119079061274e565b80156119545780601f1061192957610100808354040283529160200191611954565b820191906000526020600020905b81548152906001019060200180831161193757829003601f168201915b505050505081526020016005820154815250509050919050565b600160008573ffffffffffffffffffffffffffffffffffffffff1673ffffffffffffffffffffffffffffffffffffffff16815260200190815260200160002060009054906101000a900460ff166119fa576040517f08c379a00000000000000000000000000000000000000000000000000000000081526004016119f1906127cb565b60405180910390fd5b6004600086815260200190815260200160002060009054906101000a900460ff16611a5a576040517f08c379a0000000000000000000000000000000000000000000000000000000008152600401611a5190612a30565b60405180910390fd5b8373ffffffffffffffffffffffffffffffffffffffff166005600087815260200190815260200160002060010160009054906101000a900473ffffffffffffffffffffffffffffffffffffffff1673ffffffffffffffffffffffffffffffffffffffff1614611afe576040517f08c379a0000000000000000000000000000000000000000000000000000000008152600401611af590612ac2565b60405180910390fd5b82600560008781526020019081526020016000206002019080519060200190611b28929190611c4d565b5081600560008781526020019081526020016000206003019080519060200190611b53929190611c4d565b5080600560008781526020019081526020016000206004019080519060200190611b7e929190611c4d565b505050505050565b6000805b8280549050811015611bd15783838281548110611baa57611ba9612ae2565b5b906000526020600020015403611bbe578091505b8080611bc990612b11565b915050611b8a565b508160018380549050611be4919061281a565b81548110611bf557611bf4612ae2565b5b9060005260206000200154828281548110611c1357611c12612ae2565b5b906000526020600020018190555081805480611c3257611c31612b59565b5b60019003818190600052602060002001600090559055505050565b828054611c599061274e565b90600052602060002090601f016020900481019282611c7b5760008555611cc2565b82601f10611c9457805160ff1916838001178555611cc2565b82800160010185558215611cc2579182015b82811115611cc1578251825591602001919060010190611ca6565b5b509050611ccf9190611d55565b5090565b6040518060c001604052806060815260200160608152602001606081526020016060815260200160008152602001606081525090565b6040518060c0016040528060008152602001600073ffffffffffffffffffffffffffffffffffffffff168152602001606081526020016060815260200160608152602001600081525090565b5b80821115611d6e576000816000905550600101611d56565b5090565b6000604051905090565b600080fd5b600080fd5b600073ffffffffffffffffffffffffffffffffffffffff82169050919050565b6000611db182611d86565b9050919050565b611dc181611da6565b8114611dcc57600080fd5b50565b600081359050611dde81611db8565b92915050565b600080fd5b600080fd5b6000601f19601f8301169050919050565b7f4e487b7100000000000000000000000000000000000000000000000000000000600052604160045260246000fd5b611e3782611dee565b810181811067ffffffffffffffff82111715611e5657611e55611dff565b5b80604052505050565b6000611e69611d72565b9050611e758282611e2e565b919050565b600067ffffffffffffffff821115611e9557611e94611dff565b5b611e9e82611dee565b9050602081019050919050565b82818337600083830152505050565b6000611ecd611ec884611e7a565b611e5f565b905082815260208101848484011115611ee957611ee8611de9565b5b611ef4848285611eab565b509392505050565b600082601f830112611f1157611f10611de4565b5b8135611f21848260208601611eba565b91505092915050565b60008060008060808587031215611f4457611f43611d7c565b5b6000611f5287828801611dcf565b945050602085013567ffffffffffffffff811115611f7357611f72611d81565b5b611f7f87828801611efc565b935050604085013567ffffffffffffffff811115611fa057611f9f611d81565b5b611fac87828801611efc565b925050606085013567ffffffffffffffff811115611fcd57611fcc611d81565b5b611fd987828801611efc565b91505092959194509250565b600060208284031215611ffb57611ffa611d7c565b5b600061200984828501611dcf565b91505092915050565b600081519050919050565b600082825260208201905092915050565b60005b8381101561204c578082015181840152602081019050612031565b8381111561205b576000848401525b50505050565b600061206c82612012565b612076818561201d565b935061208681856020860161202e565b61208f81611dee565b840191505092915050565b6000819050919050565b6120ad8161209a565b82525050565b600060c08201905081810360008301526120cd8189612061565b905081810360208301526120e18188612061565b905081810360408301526120f58187612061565b905081810360608301526121098186612061565b905061211860808301856120a4565b81810360a083015261212a8184612061565b9050979650505050505050565b6000806000806080858703121561215157612150611d7c565b5b600085013567ffffffffffffffff81111561216f5761216e611d81565b5b61217b87828801611efc565b945050602085013567ffffffffffffffff81111561219c5761219b611d81565b5b6121a887828801611efc565b935050604085013567ffffffffffffffff8111156121c9576121c8611d81565b5b6121d587828801611efc565b925050606085013567ffffffffffffffff8111156121f6576121f5611d81565b5b61220287828801611efc565b91505092959194509250565b600082825260208201905092915050565b600061222a82612012565b612234818561220e565b935061224481856020860161202e565b61224d81611dee565b840191505092915050565b6122618161209a565b82525050565b600060c0830160008301518482036000860152612284828261221f565b9150506020830151848203602086015261229e828261221f565b915050604083015184820360408601526122b8828261221f565b915050606083015184820360608601526122d2828261221f565b91505060808301516122e76080860182612258565b5060a083015184820360a08601526122ff828261221f565b9150508091505092915050565b600060208201905081810360008301526123268184612267565b905092915050565b60008115159050919050565b6123438161232e565b82525050565b600060208201905061235e600083018461233a565b92915050565b61236d8161209a565b811461237857600080fd5b50565b60008135905061238a81612364565b92915050565b6000602082840312156123a6576123a5611d7c565b5b60006123b48482850161237b565b91505092915050565b600081519050919050565b600082825260208201905092915050565b6000819050602082019050919050565b60006123f58383612258565b60208301905092915050565b6000602082019050919050565b6000612419826123bd565b61242381856123c8565b935061242e836123d9565b8060005b8381101561245f57815161244688826123e9565b975061245183612401565b925050600181019050612432565b5085935050505092915050565b60006020820190508181036000830152612486818461240e565b905092915050565b600060208201905081810360008301526124a88184612061565b905092915050565b6124b981611da6565b82525050565b600060c0830160008301516124d76000860182612258565b5060208301516124ea60208601826124b0565b5060408301518482036040860152612502828261221f565b9150506060830151848203606086015261251c828261221f565b91505060808301518482036080860152612536828261221f565b91505060a083015161254b60a0860182612258565b508091505092915050565b6000602082019050818103600083015261257081846124bf565b905092915050565b600080600080600060a0868803121561259457612593611d7c565b5b60006125a28882890161237b565b95505060206125b388828901611dcf565b945050604086013567ffffffffffffffff8111156125d4576125d3611d81565b5b6125e088828901611efc565b935050606086013567ffffffffffffffff81111561260157612600611d81565b5b61260d88828901611efc565b925050608086013567ffffffffffffffff81111561262e5761262d611d81565b5b61263a88828901611efc565b9150509295509295909350565b7f4572726f72202d20496e76616c69642057616c6c657420416464726573730000600082015250565b600061267d601e8361201d565b915061268882612647565b602082019050919050565b600060208201905081810360008301526126ac81612670565b9050919050565b7f4572726f72202d205573657220616c7265616479206578697374730000000000600082015250565b60006126e9601b8361201d565b91506126f4826126b3565b602082019050919050565b60006020820190508181036000830152612718816126dc565b9050919050565b7f4e487b7100000000000000000000000000000000000000000000000000000000600052602260045260246000fd5b6000600282049050600182168061276657607f821691505b6020821081036127795761277861271f565b5b50919050565b7f4572726f72202d205573657220446f6573206e6f742065786973747300000000600082015250565b60006127b5601c8361201d565b91506127c08261277f565b602082019050919050565b600060208201905081810360008301526127e4816127a8565b9050919050565b7f4e487b7100000000000000000000000000000000000000000000000000000000600052601160045260246000fd5b60006128258261209a565b91506128308361209a565b925082821015612843576128426127eb565b5b828203905092915050565b60006128598261209a565b91506128648361209a565b9250827fffffffffffffffffffffffffffffffffffffffffffffffffffffffffffffffff03821115612899576128986127eb565b5b828201905092915050565b600081905092915050565b60008190508160005260206000209050919050565b600081546128d18161274e565b6128db81866128a4565b945060018216600081146128f657600181146129075761293a565b60ff1983168652818601935061293a565b612910856128af565b60005b8381101561293257815481890152600182019150602081019050612913565b838801955050505b50505092915050565b7f2000000000000000000000000000000000000000000000000000000000000000815250565b600061297582846128c4565b915061298082612943565b60018201915081905092915050565b600061299a82612012565b6129a481856128a4565b93506129b481856020860161202e565b80840191505092915050565b60006129cc828561298f565b91506129d882846128c4565b91508190509392505050565b7f4572726f72202d20426c6f6720446f6573206e6f742065786973747300000000600082015250565b6000612a1a601c8361201d565b9150612a25826129e4565b602082019050919050565b60006020820190508181036000830152612a4981612a0d565b9050919050565b7f4572726f72202d204f6e6c7920746865206f776e65722063616e20656469742060008201527f426c6f6700000000000000000000000000000000000000000000000000000000602082015250565b6000612aac60248361201d565b9150612ab782612a50565b604082019050919050565b60006020820190508181036000830152612adb81612a9f565b9050919050565b7f4e487b7100000000000000000000000000000000000000000000000000000000600052603260045260246000fd5b6000612b1c8261209a565b91507fffffffffffffffffffffffffffffffffffffffffffffffffffffffffffffffff8203612b4e57612b4d6127eb565b5b600182019050919050565b7f4e487b7100000000000000000000000000000000000000000000000000000000600052603160045260246000fdfea2646970667358221220c009e4c2e8c4b450599078593debf69f50eaccc97bffb5914f7abf08d3d3901864736f6c634300080d0033",
  "immutableReferences": {},
  "source": "// SPDX-License-Identifier: MIT\r\npragma solidity ^0.8.4;\r\n\r\n\r\ncontract DigiBlog{\r\n\r\n    string public contract_name;\r\n\r\n    struct User {\r\n        string firstname;\r\n        string lastname;\r\n        string username;\r\n        string avatar;\r\n        uint256 no_blogs;\r\n        string bio;\r\n    }\r\n  \r\n    struct Blog {\r\n        uint256 id;\r\n        address blogger_address;\r\n        string title;\r\n        string body;\r\n        string image;\r\n        uint256 date;\r\n    }\r\n\r\n    mapping(address => bool) public users;\r\n\r\n    mapping(address => User) public user_info;\r\n\r\n    constructor () {\r\n       contract_name = \"DigiBlog\";\r\n    }\r\n\r\n    function login() view external returns (bool) {\r\n        return users[msg.sender];\r\n    } \r\n\r\n    function signUp (address user_address, string memory firstname, string memory lastname, string memory username) external {\r\n        require(user_address != address(0), 'Error - Invalid Wallet Address');\r\n        require(!users[user_address], 'Error - User already exists');\r\n\r\n        users[user_address] = true;\r\n\r\n        User memory new_user = User(firstname, lastname, username, \"\", 0,\"\");\r\n\r\n        user_info[user_address] = new_user;\r\n    }\r\n\r\n    function getUserInfo () external view returns (User memory) {\r\n        require(users[msg.sender], 'Error - User Does not exists');\r\n\r\n        return user_info[msg.sender];\r\n    }\r\n    \r\n    function editProfile (string memory firstname, string memory lastname, string memory bio, string memory avatar) external {\r\n        require(users[msg.sender], 'Error - User Does not exists');\r\n\r\n        user_info[msg.sender].firstname = firstname;\r\n        user_info[msg.sender].lastname = lastname;\r\n        user_info[msg.sender].bio = bio;\r\n        user_info[msg.sender].avatar = avatar;\r\n    }\r\n\r\n    function getFullName (address user_address) external view returns (string memory) {\r\n        require(users[user_address], 'Error - User Does not exists');\r\n\r\n        string memory fullname = string.concat(user_info[user_address].firstname, \" \");\r\n        fullname =  string.concat(fullname, user_info[user_address].lastname);\r\n\r\n        return fullname;\r\n    }\r\n    \r\n    uint256 blogId = 0;\r\n\r\n    mapping(uint256 => bool) blog_exist;\r\n\r\n    mapping(uint256 => Blog) id_to_blog;\r\n\r\n    mapping(address => uint256[]) user_to_blog;\r\n\r\n    function createBlog(address user, string memory title, string memory body, string memory image) external {\r\n        require(user != address(0), 'Error - Invalid Wallet Address');\r\n        require(users[user], 'Error - User Does not exists');\r\n\r\n        blogId += 1;\r\n\r\n        Blog memory newBlog = Blog(blogId, user, title, body, image, block.timestamp);\r\n\r\n        user_to_blog[address(0)].push(blogId);\r\n\r\n        id_to_blog[blogId] = newBlog;\r\n\r\n        user_to_blog[user].push(blogId);\r\n\r\n        blog_exist[blogId] = true;\r\n\r\n        user_info[user].no_blogs += 1;\r\n\r\n    }\r\n    function remove(uint _valueToFindAndRemove, uint[] storage _array)  internal {\r\n        uint256 index = 0;\r\n        for (uint i = 0; i < _array.length; i++){\r\n            if(_array[i] == _valueToFindAndRemove)\r\n                index = i;\r\n        }\r\n\r\n        _array[index] = _array[_array.length-1];\r\n        _array.pop();\r\n    }\r\n\r\n    function deleteBlog(uint256 id) external {\r\n        address owner = id_to_blog[id].blogger_address; \r\n        remove(id, user_to_blog[address(0)]);\r\n        remove(id, user_to_blog[owner]);\r\n        user_info[owner].no_blogs -= 1;\r\n    }\r\n\r\n    function getBlogInfo (uint256 id) external view returns (Blog memory) {\r\n        \r\n        require(blog_exist[id] , 'Error - Blog Does not exists');\r\n\r\n        return id_to_blog[id];\r\n    }\r\n\r\n    function getAllBlogs() view external returns(uint[] memory) {\r\n        return user_to_blog[address(0)];\r\n    }\r\n\r\n    function getUserBlogs() view external returns(uint[] memory) {\r\n        require(users[msg.sender], 'Error - User Does not exists');\r\n        return user_to_blog[msg.sender];\r\n    }\r\n\r\n    function editBlog (uint256 id, address user, string memory title, string memory body, string memory image) external {\r\n        require(users[user], 'Error - User Does not exists');\r\n        require(blog_exist[id], 'Error - Blog Does not exists');\r\n        require(id_to_blog[id].blogger_address == user, 'Error - Only the owner can edit Blog');\r\n        id_to_blog[id].title = title;\r\n        id_to_blog[id].body = body;\r\n        id_to_blog[id].image = image;\r\n    }\r\n}\r\n",
  "sourcePath": "E:\\digibook-master\\src\\contracts\\DigiBlog.sol",
  "compiler": {
    "name": "solc",
    "version": "0.8.13+commit.abaa5c0e.Emscripten.clang"
  },
  "schemaVersion": "3.4.7",
  "updatedAt": "2022-05-29T10:40:14.943Z",
  "networkType": "ethereum",
  "devdoc": {
    "kind": "dev",
    "methods": {},
    "version": 1
  },
  "userdoc": {
    "kind": "user",
    "methods": {},
    "version": 1
  }
}