{
  "contractName": "DigiBlog",
  "abi": [
    {
      "inputs": [],
      "stateMutability": "nonpayable",
      "type": "constructor"
    },
    {
      "inputs": [],
      "name": "contract_name",
      "outputs": [
        {
          "internalType": "string",
          "name": "",
          "type": "string"
        }
      ],
      "stateMutability": "view",
      "type": "function",
      "constant": true
    },
    {
      "inputs": [
        {
          "internalType": "address",
          "name": "",
          "type": "address"
        }
      ],
      "name": "user_info",
      "outputs": [
        {
          "internalType": "string",
          "name": "firstname",
          "type": "string"
        },
        {
          "internalType": "string",
          "name": "lastname",
          "type": "string"
        },
        {
          "internalType": "string",
          "name": "username",
          "type": "string"
        },
        {
          "internalType": "string",
          "name": "avatar",
          "type": "string"
        },
        {
          "internalType": "uint256",
          "name": "no_blogs",
          "type": "uint256"
        },
        {
          "internalType": "string",
          "name": "bio",
          "type": "string"
        }
      ],
      "stateMutability": "view",
      "type": "function",
      "constant": true
    },
    {
      "inputs": [
        {
          "internalType": "address",
          "name": "",
          "type": "address"
        }
      ],
      "name": "users",
      "outputs": [
        {
          "internalType": "bool",
          "name": "",
          "type": "bool"
        }
      ],
      "stateMutability": "view",
      "type": "function",
      "constant": true
    },
    {
      "inputs": [],
      "name": "login",
      "outputs": [
        {
          "internalType": "bool",
          "name": "",
          "type": "bool"
        }
      ],
      "stateMutability": "view",
      "type": "function",
      "constant": true
    },
    {
      "inputs": [
        {
          "internalType": "address",
          "name": "user_address",
          "type": "address"
        },
        {
          "internalType": "string",
          "name": "firstname",
          "type": "string"
        },
        {
          "internalType": "string",
          "name": "lastname",
          "type": "string"
        },
        {
          "internalType": "string",
          "name": "username",
          "type": "string"
        }
      ],
      "name": "signUp",
      "outputs": [],
      "stateMutability": "nonpayable",
      "type": "function"
    },
    {
      "inputs": [],
      "name": "getUserInfo",
      "outputs": [
        {
          "components": [
            {
              "internalType": "string",
              "name": "firstname",
              "type": "string"
            },
            {
              "internalType": "string",
              "name": "lastname",
              "type": "string"
            },
            {
              "internalType": "string",
              "name": "username",
              "type": "string"
            },
            {
              "internalType": "string",
              "name": "avatar",
              "type": "string"
            },
            {
              "internalType": "uint256",
              "name": "no_blogs",
              "type": "uint256"
            },
            {
              "internalType": "string",
              "name": "bio",
              "type": "string"
            }
          ],
          "internalType": "struct DigiBlog.User",
          "name": "",
          "type": "tuple"
        }
      ],
      "stateMutability": "view",
      "type": "function",
      "constant": true
    },
    {
      "inputs": [
        {
          "internalType": "string",
          "name": "firstname",
          "type": "string"
        },
        {
          "internalType": "string",
          "name": "lastname",
          "type": "string"
        },
        {
          "internalType": "string",
          "name": "bio",
          "type": "string"
        },
        {
          "internalType": "string",
          "name": "avatar",
          "type": "string"
        }
      ],
      "name": "editProfile",
      "outputs": [],
      "stateMutability": "nonpayable",
      "type": "function"
    }
  ],
  "bytecode": "0x60806040523480156200001157600080fd5b506040518060400160405280600881526020017f44696769426c6f67000000000000000000000000000000000000000000000000815250600090805190602001906200005f92919062000066565b506200017a565b828054620000749062000145565b90600052602060002090601f016020900481019282620000985760008555620000e4565b82601f10620000b357805160ff1916838001178555620000e4565b82800160010185558215620000e4579182015b82811115620000e3578251825591602001919060010190620000c6565b5b509050620000f39190620000f7565b5090565b5b8082111562000112576000816000905550600101620000f8565b5090565b7f4e487b7100000000000000000000000000000000000000000000000000000000600052602260045260246000fd5b600060028204905060018216806200015e57607f821691505b60208210810362000174576200017362000116565b5b50919050565b611663806200018a6000396000f3fe608060405234801561001057600080fd5b506004361061007d5760003560e01c80635d8d15851161005b5780635d8d1585146100ef578063a87430ba1461010d578063b34e97e81461013d578063d94796921461015b5761007d565b80630be8f29a1461008257806321058d2a1461009e5780633e3a648d146100d3575b600080fd5b61009c6004803603810190610097919061102d565b610179565b005b6100b860048036038101906100b391906110e8565b610401565b6040516100ca969594939291906111b6565b60405180910390f35b6100ed60048036038101906100e8919061123a565b6106e5565b005b6100f76108d3565b604051610104919061140f565b60405180910390f35b610127600480360381019061012291906110e8565b610c9a565b604051610134919061144c565b60405180910390f35b610145610cba565b604051610152919061144c565b60405180910390f35b610163610d0e565b6040516101709190611467565b60405180910390f35b600073ffffffffffffffffffffffffffffffffffffffff168473ffffffffffffffffffffffffffffffffffffffff16036101e8576040517f08c379a00000000000000000000000000000000000000000000000000000000081526004016101df906114d5565b60405180910390fd5b600160008573ffffffffffffffffffffffffffffffffffffffff1673ffffffffffffffffffffffffffffffffffffffff16815260200190815260200160002060009054906101000a900460ff1615610275576040517f08c379a000000000000000000000000000000000000000000000000000000000815260040161026c90611541565b60405180910390fd5b60018060008673ffffffffffffffffffffffffffffffffffffffff1673ffffffffffffffffffffffffffffffffffffffff16815260200190815260200160002060006101000a81548160ff02191690831515021790555060006040518060c001604052808581526020018481526020018381526020016040518060200160405280600081525081526020016000815260200160405180602001604052806000815250815250905080600260008773ffffffffffffffffffffffffffffffffffffffff1673ffffffffffffffffffffffffffffffffffffffff1681526020019081526020016000206000820151816000019080519060200190610378929190610d9c565b506020820151816001019080519060200190610395929190610d9c565b5060408201518160020190805190602001906103b2929190610d9c565b5060608201518160030190805190602001906103cf929190610d9c565b506080820151816004015560a08201518160050190805190602001906103f6929190610d9c565b509050505050505050565b600260205280600052604060002060009150905080600001805461042490611590565b80601f016020809104026020016040519081016040528092919081815260200182805461045090611590565b801561049d5780601f106104725761010080835404028352916020019161049d565b820191906000526020600020905b81548152906001019060200180831161048057829003601f168201915b5050505050908060010180546104b290611590565b80601f01602080910402602001604051908101604052809291908181526020018280546104de90611590565b801561052b5780601f106105005761010080835404028352916020019161052b565b820191906000526020600020905b81548152906001019060200180831161050e57829003601f168201915b50505050509080600201805461054090611590565b80601f016020809104026020016040519081016040528092919081815260200182805461056c90611590565b80156105b95780601f1061058e576101008083540402835291602001916105b9565b820191906000526020600020905b81548152906001019060200180831161059c57829003601f168201915b5050505050908060030180546105ce90611590565b80601f01602080910402602001604051908101604052809291908181526020018280546105fa90611590565b80156106475780601f1061061c57610100808354040283529160200191610647565b820191906000526020600020905b81548152906001019060200180831161062a57829003601f168201915b50505050509080600401549080600501805461066290611590565b80601f016020809104026020016040519081016040528092919081815260200182805461068e90611590565b80156106db5780601f106106b0576101008083540402835291602001916106db565b820191906000526020600020905b8154815290600101906020018083116106be57829003601f168201915b5050505050905086565b600160003373ffffffffffffffffffffffffffffffffffffffff1673ffffffffffffffffffffffffffffffffffffffff16815260200190815260200160002060009054906101000a900460ff16610771576040517f08c379a00000000000000000000000000000000000000000000000000000000081526004016107689061160d565b60405180910390fd5b83600260003373ffffffffffffffffffffffffffffffffffffffff1673ffffffffffffffffffffffffffffffffffffffff16815260200190815260200160002060000190805190602001906107c7929190610d9c565b5082600260003373ffffffffffffffffffffffffffffffffffffffff1673ffffffffffffffffffffffffffffffffffffffff168152602001908152602001600020600101908051906020019061081e929190610d9c565b5081600260003373ffffffffffffffffffffffffffffffffffffffff1673ffffffffffffffffffffffffffffffffffffffff1681526020019081526020016000206005019080519060200190610875929190610d9c565b5080600260003373ffffffffffffffffffffffffffffffffffffffff1673ffffffffffffffffffffffffffffffffffffffff16815260200190815260200160002060030190805190602001906108cc929190610d9c565b5050505050565b6108db610e22565b600160003373ffffffffffffffffffffffffffffffffffffffff1673ffffffffffffffffffffffffffffffffffffffff16815260200190815260200160002060009054906101000a900460ff16610967576040517f08c379a000000000000000000000000000000000000000000000000000000000815260040161095e9061160d565b60405180910390fd5b600260003373ffffffffffffffffffffffffffffffffffffffff1673ffffffffffffffffffffffffffffffffffffffff1681526020019081526020016000206040518060c00160405290816000820180546109c190611590565b80601f01602080910402602001604051908101604052809291908181526020018280546109ed90611590565b8015610a3a5780601f10610a0f57610100808354040283529160200191610a3a565b820191906000526020600020905b815481529060010190602001808311610a1d57829003601f168201915b50505050508152602001600182018054610a5390611590565b80601f0160208091040260200160405190810160405280929190818152602001828054610a7f90611590565b8015610acc5780601f10610aa157610100808354040283529160200191610acc565b820191906000526020600020905b815481529060010190602001808311610aaf57829003601f168201915b50505050508152602001600282018054610ae590611590565b80601f0160208091040260200160405190810160405280929190818152602001828054610b1190611590565b8015610b5e5780601f10610b3357610100808354040283529160200191610b5e565b820191906000526020600020905b815481529060010190602001808311610b4157829003601f168201915b50505050508152602001600382018054610b7790611590565b80601f0160208091040260200160405190810160405280929190818152602001828054610ba390611590565b8015610bf05780601f10610bc557610100808354040283529160200191610bf0565b820191906000526020600020905b815481529060010190602001808311610bd357829003601f168201915b5050505050815260200160048201548152602001600582018054610c1390611590565b80601f0160208091040260200160405190810160405280929190818152602001828054610c3f90611590565b8015610c8c5780601f10610c6157610100808354040283529160200191610c8c565b820191906000526020600020905b815481529060010190602001808311610c6f57829003601f168201915b505050505081525050905090565b60016020528060005260406000206000915054906101000a900460ff1681565b6000600160003373ffffffffffffffffffffffffffffffffffffffff1673ffffffffffffffffffffffffffffffffffffffff16815260200190815260200160002060009054906101000a900460ff16905090565b60008054610d1b90611590565b80601f0160208091040260200160405190810160405280929190818152602001828054610d4790611590565b8015610d945780601f10610d6957610100808354040283529160200191610d94565b820191906000526020600020905b815481529060010190602001808311610d7757829003601f168201915b505050505081565b828054610da890611590565b90600052602060002090601f016020900481019282610dca5760008555610e11565b82601f10610de357805160ff1916838001178555610e11565b82800160010185558215610e11579182015b82811115610e10578251825591602001919060010190610df5565b5b509050610e1e9190610e58565b5090565b6040518060c001604052806060815260200160608152602001606081526020016060815260200160008152602001606081525090565b5b80821115610e71576000816000905550600101610e59565b5090565b6000604051905090565b600080fd5b600080fd5b600073ffffffffffffffffffffffffffffffffffffffff82169050919050565b6000610eb482610e89565b9050919050565b610ec481610ea9565b8114610ecf57600080fd5b50565b600081359050610ee181610ebb565b92915050565b600080fd5b600080fd5b6000601f19601f8301169050919050565b7f4e487b7100000000000000000000000000000000000000000000000000000000600052604160045260246000fd5b610f3a82610ef1565b810181811067ffffffffffffffff82111715610f5957610f58610f02565b5b80604052505050565b6000610f6c610e75565b9050610f788282610f31565b919050565b600067ffffffffffffffff821115610f9857610f97610f02565b5b610fa182610ef1565b9050602081019050919050565b82818337600083830152505050565b6000610fd0610fcb84610f7d565b610f62565b905082815260208101848484011115610fec57610feb610eec565b5b610ff7848285610fae565b509392505050565b600082601f83011261101457611013610ee7565b5b8135611024848260208601610fbd565b91505092915050565b6000806000806080858703121561104757611046610e7f565b5b600061105587828801610ed2565b945050602085013567ffffffffffffffff81111561107657611075610e84565b5b61108287828801610fff565b935050604085013567ffffffffffffffff8111156110a3576110a2610e84565b5b6110af87828801610fff565b925050606085013567ffffffffffffffff8111156110d0576110cf610e84565b5b6110dc87828801610fff565b91505092959194509250565b6000602082840312156110fe576110fd610e7f565b5b600061110c84828501610ed2565b91505092915050565b600081519050919050565b600082825260208201905092915050565b60005b8381101561114f578082015181840152602081019050611134565b8381111561115e576000848401525b50505050565b600061116f82611115565b6111798185611120565b9350611189818560208601611131565b61119281610ef1565b840191505092915050565b6000819050919050565b6111b08161119d565b82525050565b600060c08201905081810360008301526111d08189611164565b905081810360208301526111e48188611164565b905081810360408301526111f88187611164565b9050818103606083015261120c8186611164565b905061121b60808301856111a7565b81810360a083015261122d8184611164565b9050979650505050505050565b6000806000806080858703121561125457611253610e7f565b5b600085013567ffffffffffffffff81111561127257611271610e84565b5b61127e87828801610fff565b945050602085013567ffffffffffffffff81111561129f5761129e610e84565b5b6112ab87828801610fff565b935050604085013567ffffffffffffffff8111156112cc576112cb610e84565b5b6112d887828801610fff565b925050606085013567ffffffffffffffff8111156112f9576112f8610e84565b5b61130587828801610fff565b91505092959194509250565b600082825260208201905092915050565b600061132d82611115565b6113378185611311565b9350611347818560208601611131565b61135081610ef1565b840191505092915050565b6113648161119d565b82525050565b600060c08301600083015184820360008601526113878282611322565b915050602083015184820360208601526113a18282611322565b915050604083015184820360408601526113bb8282611322565b915050606083015184820360608601526113d58282611322565b91505060808301516113ea608086018261135b565b5060a083015184820360a08601526114028282611322565b9150508091505092915050565b60006020820190508181036000830152611429818461136a565b905092915050565b60008115159050919050565b61144681611431565b82525050565b6000602082019050611461600083018461143d565b92915050565b600060208201905081810360008301526114818184611164565b905092915050565b7f4572726f72202d20496e76616c69642057616c6c657420416464726573730000600082015250565b60006114bf601e83611120565b91506114ca82611489565b602082019050919050565b600060208201905081810360008301526114ee816114b2565b9050919050565b7f4572726f72202d205573657220616c7265616479206578697374730000000000600082015250565b600061152b601b83611120565b9150611536826114f5565b602082019050919050565b6000602082019050818103600083015261155a8161151e565b9050919050565b7f4e487b7100000000000000000000000000000000000000000000000000000000600052602260045260246000fd5b600060028204905060018216806115a857607f821691505b6020821081036115bb576115ba611561565b5b50919050565b7f4572726f72202d205573657220446f6573206e6f742065786973747300000000600082015250565b60006115f7601c83611120565b9150611602826115c1565b602082019050919050565b60006020820190508181036000830152611626816115ea565b905091905056fea2646970667358221220277e1cf47871fdc242af2a25e31c257c31adda3ff5d604598905f43658670dd264736f6c634300080d0033",
  "immutableReferences": {},
  "source": "// SPDX-License-Identifier: MIT\r\npragma solidity ^0.8.4;\r\n\r\n\r\ncontract DigiBlog{\r\n\r\n    string public contract_name;\r\n\r\n    struct User {\r\n        string firstname;\r\n        string lastname;\r\n        string username;\r\n        string avatar;\r\n        uint256 no_blogs;\r\n        string bio;\r\n    }\r\n    //array to store our nfts\r\n    // string [] public books;\r\n\r\n    // Will be used for login\r\n    mapping(address => bool) public users;\r\n\r\n    // Get user info based on address\r\n    mapping(address => User) public user_info;\r\n\r\n    function login() view external returns (bool) {\r\n        return users[msg.sender];\r\n    } \r\n\r\n    function signUp (address user_address, string memory firstname, string memory lastname, string memory username) external {\r\n        require(user_address != address(0), 'Error - Invalid Wallet Address');\r\n        require(!users[user_address], 'Error - User already exists');\r\n\r\n        users[user_address] = true;\r\n\r\n        User memory new_user = User(firstname, lastname, username, \"\", 0,\"\");\r\n\r\n        user_info[user_address] = new_user;\r\n    }\r\n\r\n    function getUserInfo () external view returns (User memory) {\r\n        require(users[msg.sender], 'Error - User Does not exists');\r\n\r\n        return user_info[msg.sender];\r\n    }\r\n    \r\n    function editProfile (string memory firstname, string memory lastname, string memory bio, string memory avatar) external {\r\n        require(users[msg.sender], 'Error - User Does not exists');\r\n\r\n        user_info[msg.sender].firstname = firstname;\r\n        user_info[msg.sender].lastname = lastname;\r\n        user_info[msg.sender].bio = bio;\r\n        user_info[msg.sender].avatar = avatar;\r\n    }\r\n\r\n    constructor () {\r\n       contract_name = \"DigiBlog\";\r\n    }\r\n\r\n}\r\n",
  "sourcePath": "E:\\digibook-master\\src\\contracts\\DigiBlog.sol",
  "compiler": {
    "name": "solc",
    "version": "0.8.13+commit.abaa5c0e.Emscripten.clang"
  },
  "schemaVersion": "3.4.7",
  "updatedAt": "2022-05-23T22:28:58.714Z",
  "networkType": "ethereum",
  "devdoc": {
    "kind": "dev",
    "methods": {},
    "version": 1
  },
  "userdoc": {
    "kind": "user",
    "methods": {},
    "version": 1
  }
}