{
  "contractName": "DigiBlog",
  "abi": [
    {
      "inputs": [],
      "stateMutability": "nonpayable",
      "type": "constructor"
    },
    {
      "inputs": [],
      "name": "contract_name",
      "outputs": [
        {
          "internalType": "string",
          "name": "",
          "type": "string"
        }
      ],
      "stateMutability": "view",
      "type": "function",
      "constant": true
    },
    {
      "inputs": [
        {
          "internalType": "address",
          "name": "",
          "type": "address"
        }
      ],
      "name": "user_info",
      "outputs": [
        {
          "internalType": "string",
          "name": "firstname",
          "type": "string"
        },
        {
          "internalType": "string",
          "name": "lastname",
          "type": "string"
        },
        {
          "internalType": "string",
          "name": "username",
          "type": "string"
        },
        {
          "internalType": "string",
          "name": "avatar",
          "type": "string"
        },
        {
          "internalType": "uint256",
          "name": "no_blogs",
          "type": "uint256"
        },
        {
          "internalType": "string",
          "name": "bio",
          "type": "string"
        }
      ],
      "stateMutability": "view",
      "type": "function",
      "constant": true
    },
    {
      "inputs": [
        {
          "internalType": "address",
          "name": "",
          "type": "address"
        }
      ],
      "name": "users",
      "outputs": [
        {
          "internalType": "bool",
          "name": "",
          "type": "bool"
        }
      ],
      "stateMutability": "view",
      "type": "function",
      "constant": true
    },
    {
      "inputs": [],
      "name": "login",
      "outputs": [
        {
          "internalType": "bool",
          "name": "",
          "type": "bool"
        }
      ],
      "stateMutability": "view",
      "type": "function",
      "constant": true
    },
    {
      "inputs": [
        {
          "internalType": "address",
          "name": "user_address",
          "type": "address"
        },
        {
          "internalType": "string",
          "name": "firstname",
          "type": "string"
        },
        {
          "internalType": "string",
          "name": "lastname",
          "type": "string"
        },
        {
          "internalType": "string",
          "name": "username",
          "type": "string"
        }
      ],
      "name": "signUp",
      "outputs": [],
      "stateMutability": "nonpayable",
      "type": "function"
    },
    {
      "inputs": [],
      "name": "getUserInfo",
      "outputs": [
        {
          "components": [
            {
              "internalType": "string",
              "name": "firstname",
              "type": "string"
            },
            {
              "internalType": "string",
              "name": "lastname",
              "type": "string"
            },
            {
              "internalType": "string",
              "name": "username",
              "type": "string"
            },
            {
              "internalType": "string",
              "name": "avatar",
              "type": "string"
            },
            {
              "internalType": "uint256",
              "name": "no_blogs",
              "type": "uint256"
            },
            {
              "internalType": "string",
              "name": "bio",
              "type": "string"
            }
          ],
          "internalType": "struct DigiBlog.User",
          "name": "",
          "type": "tuple"
        }
      ],
      "stateMutability": "view",
      "type": "function",
      "constant": true
    },
    {
      "inputs": [
        {
          "internalType": "string",
          "name": "firstname",
          "type": "string"
        },
        {
          "internalType": "string",
          "name": "lastname",
          "type": "string"
        },
        {
          "internalType": "string",
          "name": "bio",
          "type": "string"
        },
        {
          "internalType": "string",
          "name": "avatar",
          "type": "string"
        }
      ],
      "name": "editProfile",
      "outputs": [],
      "stateMutability": "nonpayable",
      "type": "function"
    },
    {
      "inputs": [
        {
          "internalType": "address",
          "name": "user",
          "type": "address"
        },
        {
          "internalType": "string",
          "name": "title",
          "type": "string"
        },
        {
          "internalType": "string",
          "name": "body",
          "type": "string"
        },
        {
          "internalType": "string",
          "name": "image",
          "type": "string"
        }
      ],
      "name": "createBlog",
      "outputs": [],
      "stateMutability": "nonpayable",
      "type": "function"
    },
    {
      "inputs": [
        {
          "internalType": "uint256",
          "name": "id",
          "type": "uint256"
        }
      ],
      "name": "deleteBlog",
      "outputs": [],
      "stateMutability": "nonpayable",
      "type": "function"
    },
    {
      "inputs": [
        {
          "internalType": "uint256",
          "name": "id",
          "type": "uint256"
        }
      ],
      "name": "getBlogInfo",
      "outputs": [
        {
          "components": [
            {
              "internalType": "uint256",
              "name": "id",
              "type": "uint256"
            },
            {
              "internalType": "address",
              "name": "blogger_address",
              "type": "address"
            },
            {
              "internalType": "string",
              "name": "title",
              "type": "string"
            },
            {
              "internalType": "string",
              "name": "body",
              "type": "string"
            },
            {
              "internalType": "string",
              "name": "image",
              "type": "string"
            },
            {
              "internalType": "uint256",
              "name": "date",
              "type": "uint256"
            }
          ],
          "internalType": "struct DigiBlog.Blog",
          "name": "",
          "type": "tuple"
        }
      ],
      "stateMutability": "view",
      "type": "function",
      "constant": true
    },
    {
      "inputs": [],
      "name": "getAllBlogs",
      "outputs": [
        {
          "internalType": "uint256[]",
          "name": "",
          "type": "uint256[]"
        }
      ],
      "stateMutability": "view",
      "type": "function",
      "constant": true
    },
    {
      "inputs": [],
      "name": "getUserBlogs",
      "outputs": [
        {
          "internalType": "uint256[]",
          "name": "",
          "type": "uint256[]"
        }
      ],
      "stateMutability": "view",
      "type": "function",
      "constant": true
    },
    {
      "inputs": [
        {
          "internalType": "uint256",
          "name": "id",
          "type": "uint256"
        },
        {
          "internalType": "address",
          "name": "user",
          "type": "address"
        },
        {
          "internalType": "string",
          "name": "title",
          "type": "string"
        },
        {
          "internalType": "string",
          "name": "body",
          "type": "string"
        },
        {
          "internalType": "string",
          "name": "image",
          "type": "string"
        }
      ],
      "name": "editBlog",
      "outputs": [],
      "stateMutability": "nonpayable",
      "type": "function"
    }
  ],
  "bytecode": "0x608060405260006003553480156200001657600080fd5b506040518060400160405280600881526020017f44696769426c6f6700000000000000000000000000000000000000000000000081525060009080519060200190620000649291906200006b565b506200017f565b82805462000079906200014a565b90600052602060002090601f0160209004810192826200009d5760008555620000e9565b82601f10620000b857805160ff1916838001178555620000e9565b82800160010185558215620000e9579182015b82811115620000e8578251825591602001919060010190620000cb565b5b509050620000f89190620000fc565b5090565b5b8082111562000117576000816000905550600101620000fd565b5090565b7f4e487b7100000000000000000000000000000000000000000000000000000000600052602260045260246000fd5b600060028204905060018216806200016357607f821691505b6020821081036200017957620001786200011b565b5b50919050565b6127f4806200018f6000396000f3fe608060405234801561001057600080fd5b50600436106100cf5760003560e01c8063b34e97e81161008c578063e0e9fe7311610066578063e0e9fe7314610205578063ebf5ff6f14610221578063fa981b861461023f578063ff33fb131461026f576100cf565b8063b34e97e8146101ab578063c4c74700146101c9578063d9479692146101e7576100cf565b80630be8f29a146100d457806321058d2a146100f05780633e3a648d146101255780635d8d158514610141578063a87430ba1461015f578063af21c8b21461018f575b600080fd5b6100ee60048036038101906100e99190611ca0565b61028b565b005b61010a60048036038101906101059190611d5b565b610513565b60405161011c96959493929190611e29565b60405180910390f35b61013f600480360381019061013a9190611ead565b6107f7565b005b6101496109e5565b6040516101569190612082565b60405180910390f35b61017960048036038101906101749190611d5b565b610dac565b60405161018691906120bf565b60405180910390f35b6101a960048036038101906101a49190612106565b610dcc565b005b6101b3610e17565b6040516101c091906120bf565b60405180910390f35b6101d1610e6b565b6040516101de91906121e2565b60405180910390f35b6101ef610f00565b6040516101fc9190612204565b60405180910390f35b61021f600480360381019061021a9190611ca0565b610f8e565b005b610229611316565b60405161023691906121e2565b60405180910390f35b61025960048036038101906102549190612106565b611437565b60405161026691906122cc565b60405180910390f35b610289600480360381019061028491906122ee565b6116e4565b005b600073ffffffffffffffffffffffffffffffffffffffff168473ffffffffffffffffffffffffffffffffffffffff16036102fa576040517f08c379a00000000000000000000000000000000000000000000000000000000081526004016102f190612409565b60405180910390fd5b600160008573ffffffffffffffffffffffffffffffffffffffff1673ffffffffffffffffffffffffffffffffffffffff16815260200190815260200160002060009054906101000a900460ff1615610387576040517f08c379a000000000000000000000000000000000000000000000000000000000815260040161037e90612475565b60405180910390fd5b60018060008673ffffffffffffffffffffffffffffffffffffffff1673ffffffffffffffffffffffffffffffffffffffff16815260200190815260200160002060006101000a81548160ff02191690831515021790555060006040518060c001604052808581526020018481526020018381526020016040518060200160405280600081525081526020016000815260200160405180602001604052806000815250815250905080600260008773ffffffffffffffffffffffffffffffffffffffff1673ffffffffffffffffffffffffffffffffffffffff168152602001908152602001600020600082015181600001908051906020019061048a9291906119c3565b5060208201518160010190805190602001906104a79291906119c3565b5060408201518160020190805190602001906104c49291906119c3565b5060608201518160030190805190602001906104e19291906119c3565b506080820151816004015560a08201518160050190805190602001906105089291906119c3565b509050505050505050565b6002602052806000526040600020600091509050806000018054610536906124c4565b80601f0160208091040260200160405190810160405280929190818152602001828054610562906124c4565b80156105af5780601f10610584576101008083540402835291602001916105af565b820191906000526020600020905b81548152906001019060200180831161059257829003601f168201915b5050505050908060010180546105c4906124c4565b80601f01602080910402602001604051908101604052809291908181526020018280546105f0906124c4565b801561063d5780601f106106125761010080835404028352916020019161063d565b820191906000526020600020905b81548152906001019060200180831161062057829003601f168201915b505050505090806002018054610652906124c4565b80601f016020809104026020016040519081016040528092919081815260200182805461067e906124c4565b80156106cb5780601f106106a0576101008083540402835291602001916106cb565b820191906000526020600020905b8154815290600101906020018083116106ae57829003601f168201915b5050505050908060030180546106e0906124c4565b80601f016020809104026020016040519081016040528092919081815260200182805461070c906124c4565b80156107595780601f1061072e57610100808354040283529160200191610759565b820191906000526020600020905b81548152906001019060200180831161073c57829003601f168201915b505050505090806004015490806005018054610774906124c4565b80601f01602080910402602001604051908101604052809291908181526020018280546107a0906124c4565b80156107ed5780601f106107c2576101008083540402835291602001916107ed565b820191906000526020600020905b8154815290600101906020018083116107d057829003601f168201915b5050505050905086565b600160003373ffffffffffffffffffffffffffffffffffffffff1673ffffffffffffffffffffffffffffffffffffffff16815260200190815260200160002060009054906101000a900460ff16610883576040517f08c379a000000000000000000000000000000000000000000000000000000000815260040161087a90612541565b60405180910390fd5b83600260003373ffffffffffffffffffffffffffffffffffffffff1673ffffffffffffffffffffffffffffffffffffffff16815260200190815260200160002060000190805190602001906108d99291906119c3565b5082600260003373ffffffffffffffffffffffffffffffffffffffff1673ffffffffffffffffffffffffffffffffffffffff16815260200190815260200160002060010190805190602001906109309291906119c3565b5081600260003373ffffffffffffffffffffffffffffffffffffffff1673ffffffffffffffffffffffffffffffffffffffff16815260200190815260200160002060050190805190602001906109879291906119c3565b5080600260003373ffffffffffffffffffffffffffffffffffffffff1673ffffffffffffffffffffffffffffffffffffffff16815260200190815260200160002060030190805190602001906109de9291906119c3565b5050505050565b6109ed611a49565b600160003373ffffffffffffffffffffffffffffffffffffffff1673ffffffffffffffffffffffffffffffffffffffff16815260200190815260200160002060009054906101000a900460ff16610a79576040517f08c379a0000000000000000000000000000000000000000000000000000000008152600401610a7090612541565b60405180910390fd5b600260003373ffffffffffffffffffffffffffffffffffffffff1673ffffffffffffffffffffffffffffffffffffffff1681526020019081526020016000206040518060c0016040529081600082018054610ad3906124c4565b80601f0160208091040260200160405190810160405280929190818152602001828054610aff906124c4565b8015610b4c5780601f10610b2157610100808354040283529160200191610b4c565b820191906000526020600020905b815481529060010190602001808311610b2f57829003601f168201915b50505050508152602001600182018054610b65906124c4565b80601f0160208091040260200160405190810160405280929190818152602001828054610b91906124c4565b8015610bde5780601f10610bb357610100808354040283529160200191610bde565b820191906000526020600020905b815481529060010190602001808311610bc157829003601f168201915b50505050508152602001600282018054610bf7906124c4565b80601f0160208091040260200160405190810160405280929190818152602001828054610c23906124c4565b8015610c705780601f10610c4557610100808354040283529160200191610c70565b820191906000526020600020905b815481529060010190602001808311610c5357829003601f168201915b50505050508152602001600382018054610c89906124c4565b80601f0160208091040260200160405190810160405280929190818152602001828054610cb5906124c4565b8015610d025780601f10610cd757610100808354040283529160200191610d02565b820191906000526020600020905b815481529060010190602001808311610ce557829003601f168201915b5050505050815260200160048201548152602001600582018054610d25906124c4565b80601f0160208091040260200160405190810160405280929190818152602001828054610d51906124c4565b8015610d9e5780601f10610d7357610100808354040283529160200191610d9e565b820191906000526020600020905b815481529060010190602001808311610d8157829003601f168201915b505050505081525050905090565b60016020528060005260406000206000915054906101000a900460ff1681565b610e1481600660008073ffffffffffffffffffffffffffffffffffffffff1673ffffffffffffffffffffffffffffffffffffffff1681526020019081526020016000206118fc565b50565b6000600160003373ffffffffffffffffffffffffffffffffffffffff1673ffffffffffffffffffffffffffffffffffffffff16815260200190815260200160002060009054906101000a900460ff16905090565b6060600660008073ffffffffffffffffffffffffffffffffffffffff1673ffffffffffffffffffffffffffffffffffffffff168152602001908152602001600020805480602002602001604051908101604052809291908181526020018280548015610ef657602002820191906000526020600020905b815481526020019060010190808311610ee2575b5050505050905090565b60008054610f0d906124c4565b80601f0160208091040260200160405190810160405280929190818152602001828054610f39906124c4565b8015610f865780601f10610f5b57610100808354040283529160200191610f86565b820191906000526020600020905b815481529060010190602001808311610f6957829003601f168201915b505050505081565b600073ffffffffffffffffffffffffffffffffffffffff168473ffffffffffffffffffffffffffffffffffffffff1603610ffd576040517f08c379a0000000000000000000000000000000000000000000000000000000008152600401610ff490612409565b60405180910390fd5b600160008573ffffffffffffffffffffffffffffffffffffffff1673ffffffffffffffffffffffffffffffffffffffff16815260200190815260200160002060009054906101000a900460ff16611089576040517f08c379a000000000000000000000000000000000000000000000000000000000815260040161108090612541565b60405180910390fd5b60016003600082825461109c9190612590565b9250508190555060006040518060c0016040528060035481526020018673ffffffffffffffffffffffffffffffffffffffff168152602001858152602001848152602001838152602001428152509050600660008073ffffffffffffffffffffffffffffffffffffffff1673ffffffffffffffffffffffffffffffffffffffff1681526020019081526020016000206003549080600181540180825580915050600190039060005260206000200160009091909190915055806005600060035481526020019081526020016000206000820151816000015560208201518160010160006101000a81548173ffffffffffffffffffffffffffffffffffffffff021916908373ffffffffffffffffffffffffffffffffffffffff16021790555060408201518160020190805190602001906111d79291906119c3565b5060608201518160030190805190602001906111f49291906119c3565b5060808201518160040190805190602001906112119291906119c3565b5060a08201518160050155905050600660008673ffffffffffffffffffffffffffffffffffffffff1673ffffffffffffffffffffffffffffffffffffffff1681526020019081526020016000206003549080600181540180825580915050600190039060005260206000200160009091909190915055600160046000600354815260200190815260200160002060006101000a81548160ff0219169083151502179055506001600260008773ffffffffffffffffffffffffffffffffffffffff1673ffffffffffffffffffffffffffffffffffffffff16815260200190815260200160002060040160008282546113089190612590565b925050819055505050505050565b6060600160003373ffffffffffffffffffffffffffffffffffffffff1673ffffffffffffffffffffffffffffffffffffffff16815260200190815260200160002060009054906101000a900460ff166113a4576040517f08c379a000000000000000000000000000000000000000000000000000000000815260040161139b90612541565b60405180910390fd5b600660003373ffffffffffffffffffffffffffffffffffffffff1673ffffffffffffffffffffffffffffffffffffffff16815260200190815260200160002080548060200260200160405190810160405280929190818152602001828054801561142d57602002820191906000526020600020905b815481526020019060010190808311611419575b5050505050905090565b61143f611a7f565b6004600083815260200190815260200160002060009054906101000a900460ff1661149f576040517f08c379a000000000000000000000000000000000000000000000000000000000815260040161149690612632565b60405180910390fd5b600560008381526020019081526020016000206040518060c0016040529081600082015481526020016001820160009054906101000a900473ffffffffffffffffffffffffffffffffffffffff1673ffffffffffffffffffffffffffffffffffffffff1673ffffffffffffffffffffffffffffffffffffffff16815260200160028201805461152d906124c4565b80601f0160208091040260200160405190810160405280929190818152602001828054611559906124c4565b80156115a65780601f1061157b576101008083540402835291602001916115a6565b820191906000526020600020905b81548152906001019060200180831161158957829003601f168201915b505050505081526020016003820180546115bf906124c4565b80601f01602080910402602001604051908101604052809291908181526020018280546115eb906124c4565b80156116385780601f1061160d57610100808354040283529160200191611638565b820191906000526020600020905b81548152906001019060200180831161161b57829003601f168201915b50505050508152602001600482018054611651906124c4565b80601f016020809104026020016040519081016040528092919081815260200182805461167d906124c4565b80156116ca5780601f1061169f576101008083540402835291602001916116ca565b820191906000526020600020905b8154815290600101906020018083116116ad57829003601f168201915b505050505081526020016005820154815250509050919050565b600160008573ffffffffffffffffffffffffffffffffffffffff1673ffffffffffffffffffffffffffffffffffffffff16815260200190815260200160002060009054906101000a900460ff16611770576040517f08c379a000000000000000000000000000000000000000000000000000000000815260040161176790612541565b60405180910390fd5b6004600086815260200190815260200160002060009054906101000a900460ff166117d0576040517f08c379a00000000000000000000000000000000000000000000000000000000081526004016117c790612632565b60405180910390fd5b8373ffffffffffffffffffffffffffffffffffffffff166005600087815260200190815260200160002060010160009054906101000a900473ffffffffffffffffffffffffffffffffffffffff1673ffffffffffffffffffffffffffffffffffffffff1614611874576040517f08c379a000000000000000000000000000000000000000000000000000000000815260040161186b906126c4565b60405180910390fd5b8260056000878152602001908152602001600020600201908051906020019061189e9291906119c3565b50816005600087815260200190815260200160002060030190805190602001906118c99291906119c3565b50806005600087815260200190815260200160002060040190805190602001906118f49291906119c3565b505050505050565b6000805b828054905081101561194757838382815481106119205761191f6126e4565b5b906000526020600020015403611934578091505b808061193f90612713565b915050611900565b50816001838054905061195a919061275b565b8154811061196b5761196a6126e4565b5b9060005260206000200154828281548110611989576119886126e4565b5b9060005260206000200181905550818054806119a8576119a761278f565b5b60019003818190600052602060002001600090559055505050565b8280546119cf906124c4565b90600052602060002090601f0160209004810192826119f15760008555611a38565b82601f10611a0a57805160ff1916838001178555611a38565b82800160010185558215611a38579182015b82811115611a37578251825591602001919060010190611a1c565b5b509050611a459190611acb565b5090565b6040518060c001604052806060815260200160608152602001606081526020016060815260200160008152602001606081525090565b6040518060c0016040528060008152602001600073ffffffffffffffffffffffffffffffffffffffff168152602001606081526020016060815260200160608152602001600081525090565b5b80821115611ae4576000816000905550600101611acc565b5090565b6000604051905090565b600080fd5b600080fd5b600073ffffffffffffffffffffffffffffffffffffffff82169050919050565b6000611b2782611afc565b9050919050565b611b3781611b1c565b8114611b4257600080fd5b50565b600081359050611b5481611b2e565b92915050565b600080fd5b600080fd5b6000601f19601f8301169050919050565b7f4e487b7100000000000000000000000000000000000000000000000000000000600052604160045260246000fd5b611bad82611b64565b810181811067ffffffffffffffff82111715611bcc57611bcb611b75565b5b80604052505050565b6000611bdf611ae8565b9050611beb8282611ba4565b919050565b600067ffffffffffffffff821115611c0b57611c0a611b75565b5b611c1482611b64565b9050602081019050919050565b82818337600083830152505050565b6000611c43611c3e84611bf0565b611bd5565b905082815260208101848484011115611c5f57611c5e611b5f565b5b611c6a848285611c21565b509392505050565b600082601f830112611c8757611c86611b5a565b5b8135611c97848260208601611c30565b91505092915050565b60008060008060808587031215611cba57611cb9611af2565b5b6000611cc887828801611b45565b945050602085013567ffffffffffffffff811115611ce957611ce8611af7565b5b611cf587828801611c72565b935050604085013567ffffffffffffffff811115611d1657611d15611af7565b5b611d2287828801611c72565b925050606085013567ffffffffffffffff811115611d4357611d42611af7565b5b611d4f87828801611c72565b91505092959194509250565b600060208284031215611d7157611d70611af2565b5b6000611d7f84828501611b45565b91505092915050565b600081519050919050565b600082825260208201905092915050565b60005b83811015611dc2578082015181840152602081019050611da7565b83811115611dd1576000848401525b50505050565b6000611de282611d88565b611dec8185611d93565b9350611dfc818560208601611da4565b611e0581611b64565b840191505092915050565b6000819050919050565b611e2381611e10565b82525050565b600060c0820190508181036000830152611e438189611dd7565b90508181036020830152611e578188611dd7565b90508181036040830152611e6b8187611dd7565b90508181036060830152611e7f8186611dd7565b9050611e8e6080830185611e1a565b81810360a0830152611ea08184611dd7565b9050979650505050505050565b60008060008060808587031215611ec757611ec6611af2565b5b600085013567ffffffffffffffff811115611ee557611ee4611af7565b5b611ef187828801611c72565b945050602085013567ffffffffffffffff811115611f1257611f11611af7565b5b611f1e87828801611c72565b935050604085013567ffffffffffffffff811115611f3f57611f3e611af7565b5b611f4b87828801611c72565b925050606085013567ffffffffffffffff811115611f6c57611f6b611af7565b5b611f7887828801611c72565b91505092959194509250565b600082825260208201905092915050565b6000611fa082611d88565b611faa8185611f84565b9350611fba818560208601611da4565b611fc381611b64565b840191505092915050565b611fd781611e10565b82525050565b600060c0830160008301518482036000860152611ffa8282611f95565b915050602083015184820360208601526120148282611f95565b9150506040830151848203604086015261202e8282611f95565b915050606083015184820360608601526120488282611f95565b915050608083015161205d6080860182611fce565b5060a083015184820360a08601526120758282611f95565b9150508091505092915050565b6000602082019050818103600083015261209c8184611fdd565b905092915050565b60008115159050919050565b6120b9816120a4565b82525050565b60006020820190506120d460008301846120b0565b92915050565b6120e381611e10565b81146120ee57600080fd5b50565b600081359050612100816120da565b92915050565b60006020828403121561211c5761211b611af2565b5b600061212a848285016120f1565b91505092915050565b600081519050919050565b600082825260208201905092915050565b6000819050602082019050919050565b600061216b8383611fce565b60208301905092915050565b6000602082019050919050565b600061218f82612133565b612199818561213e565b93506121a48361214f565b8060005b838110156121d55781516121bc888261215f565b97506121c783612177565b9250506001810190506121a8565b5085935050505092915050565b600060208201905081810360008301526121fc8184612184565b905092915050565b6000602082019050818103600083015261221e8184611dd7565b905092915050565b61222f81611b1c565b82525050565b600060c08301600083015161224d6000860182611fce565b5060208301516122606020860182612226565b50604083015184820360408601526122788282611f95565b915050606083015184820360608601526122928282611f95565b915050608083015184820360808601526122ac8282611f95565b91505060a08301516122c160a0860182611fce565b508091505092915050565b600060208201905081810360008301526122e68184612235565b905092915050565b600080600080600060a0868803121561230a57612309611af2565b5b6000612318888289016120f1565b955050602061232988828901611b45565b945050604086013567ffffffffffffffff81111561234a57612349611af7565b5b61235688828901611c72565b935050606086013567ffffffffffffffff81111561237757612376611af7565b5b61238388828901611c72565b925050608086013567ffffffffffffffff8111156123a4576123a3611af7565b5b6123b088828901611c72565b9150509295509295909350565b7f4572726f72202d20496e76616c69642057616c6c657420416464726573730000600082015250565b60006123f3601e83611d93565b91506123fe826123bd565b602082019050919050565b60006020820190508181036000830152612422816123e6565b9050919050565b7f4572726f72202d205573657220616c7265616479206578697374730000000000600082015250565b600061245f601b83611d93565b915061246a82612429565b602082019050919050565b6000602082019050818103600083015261248e81612452565b9050919050565b7f4e487b7100000000000000000000000000000000000000000000000000000000600052602260045260246000fd5b600060028204905060018216806124dc57607f821691505b6020821081036124ef576124ee612495565b5b50919050565b7f4572726f72202d205573657220446f6573206e6f742065786973747300000000600082015250565b600061252b601c83611d93565b9150612536826124f5565b602082019050919050565b6000602082019050818103600083015261255a8161251e565b9050919050565b7f4e487b7100000000000000000000000000000000000000000000000000000000600052601160045260246000fd5b600061259b82611e10565b91506125a683611e10565b9250827fffffffffffffffffffffffffffffffffffffffffffffffffffffffffffffffff038211156125db576125da612561565b5b828201905092915050565b7f4572726f72202d20426c6f6720446f6573206e6f742065786973747300000000600082015250565b600061261c601c83611d93565b9150612627826125e6565b602082019050919050565b6000602082019050818103600083015261264b8161260f565b9050919050565b7f4572726f72202d204f6e6c7920746865206f776e65722063616e20656469742060008201527f426c6f6700000000000000000000000000000000000000000000000000000000602082015250565b60006126ae602483611d93565b91506126b982612652565b604082019050919050565b600060208201905081810360008301526126dd816126a1565b9050919050565b7f4e487b7100000000000000000000000000000000000000000000000000000000600052603260045260246000fd5b600061271e82611e10565b91507fffffffffffffffffffffffffffffffffffffffffffffffffffffffffffffffff82036127505761274f612561565b5b600182019050919050565b600061276682611e10565b915061277183611e10565b92508282101561278457612783612561565b5b828203905092915050565b7f4e487b7100000000000000000000000000000000000000000000000000000000600052603160045260246000fdfea2646970667358221220ca1161ad9d420587edc6bea104b0e38688ab7f40b33d9983487a9bfb9e79fb7364736f6c634300080d0033",
  "immutableReferences": {},
  "source": "// SPDX-License-Identifier: MIT\r\npragma solidity ^0.8.4;\r\n\r\n\r\ncontract DigiBlog{\r\n\r\n    string public contract_name;\r\n\r\n    struct User {\r\n        string firstname;\r\n        string lastname;\r\n        string username;\r\n        string avatar;\r\n        uint256 no_blogs;\r\n        string bio;\r\n    }\r\n  \r\n    struct Blog {\r\n        uint256 id;\r\n        address blogger_address;\r\n        string title;\r\n        string body;\r\n        string image;\r\n        uint256 date;\r\n    }\r\n\r\n    mapping(address => bool) public users;\r\n\r\n    mapping(address => User) public user_info;\r\n\r\n    constructor () {\r\n       contract_name = \"DigiBlog\";\r\n    }\r\n\r\n    function login() view external returns (bool) {\r\n        return users[msg.sender];\r\n    } \r\n\r\n    function signUp (address user_address, string memory firstname, string memory lastname, string memory username) external {\r\n        require(user_address != address(0), 'Error - Invalid Wallet Address');\r\n        require(!users[user_address], 'Error - User already exists');\r\n\r\n        users[user_address] = true;\r\n\r\n        User memory new_user = User(firstname, lastname, username, \"\", 0,\"\");\r\n\r\n        user_info[user_address] = new_user;\r\n    }\r\n\r\n    function getUserInfo () external view returns (User memory) {\r\n        require(users[msg.sender], 'Error - User Does not exists');\r\n\r\n        return user_info[msg.sender];\r\n    }\r\n    \r\n    function editProfile (string memory firstname, string memory lastname, string memory bio, string memory avatar) external {\r\n        require(users[msg.sender], 'Error - User Does not exists');\r\n\r\n        user_info[msg.sender].firstname = firstname;\r\n        user_info[msg.sender].lastname = lastname;\r\n        user_info[msg.sender].bio = bio;\r\n        user_info[msg.sender].avatar = avatar;\r\n    }\r\n\r\n    uint256 blogId = 0;\r\n\r\n    mapping(uint256 => bool) blog_exist;\r\n\r\n    mapping(uint256 => Blog) id_to_blog;\r\n\r\n    mapping(address => uint256[]) user_to_blog;\r\n\r\n    function createBlog(address user, string memory title, string memory body, string memory image) external {\r\n        require(user != address(0), 'Error - Invalid Wallet Address');\r\n        require(users[user], 'Error - User Does not exists');\r\n\r\n        blogId += 1;\r\n\r\n        Blog memory newBlog = Blog(blogId, user, title, body, image, block.timestamp);\r\n\r\n        user_to_blog[address(0)].push(blogId);\r\n\r\n        id_to_blog[blogId] = newBlog;\r\n\r\n        user_to_blog[user].push(blogId);\r\n\r\n        blog_exist[blogId] = true;\r\n\r\n        user_info[user].no_blogs += 1;\r\n\r\n    }\r\n    function remove(uint _valueToFindAndRemove, uint[] storage _array)  internal {\r\n        uint256 index = 0;\r\n        for (uint i = 0; i < _array.length; i++){\r\n            if(_array[i] == _valueToFindAndRemove)\r\n                index = i;\r\n        }\r\n\r\n        _array[index] = _array[_array.length-1];\r\n        _array.pop();\r\n    }\r\n\r\n    function deleteBlog(uint256 id) external {\r\n        remove(id,user_to_blog[address(0)]);\r\n    }\r\n\r\n    function getBlogInfo (uint256 id) external view returns (Blog memory) {\r\n        \r\n        require(blog_exist[id] , 'Error - Blog Does not exists');\r\n\r\n        return id_to_blog[id];\r\n    }\r\n\r\n    function getAllBlogs() view external returns(uint[] memory) {\r\n        return user_to_blog[address(0)];\r\n    }\r\n\r\n     function getUserBlogs() view external returns(uint[] memory) {\r\n        require(users[msg.sender], 'Error - User Does not exists');\r\n        return user_to_blog[msg.sender];\r\n    }\r\n\r\n      function editBlog (uint256 id, address user, string memory title, string memory body, string memory image) external {\r\n        require(users[user], 'Error - User Does not exists');\r\n        require(blog_exist[id], 'Error - Blog Does not exists');\r\n        require(id_to_blog[id].blogger_address == user, 'Error - Only the owner can edit Blog');\r\n        id_to_blog[id].title = title;\r\n        id_to_blog[id].body = body;\r\n        id_to_blog[id].image = image;\r\n    }\r\n}\r\n",
  "sourcePath": "E:\\digibook-master\\src\\contracts\\DigiBlog.sol",
  "compiler": {
    "name": "solc",
    "version": "0.8.13+commit.abaa5c0e.Emscripten.clang"
  },
  "schemaVersion": "3.4.7",
  "updatedAt": "2022-05-28T03:45:43.355Z",
  "networkType": "ethereum",
  "devdoc": {
    "kind": "dev",
    "methods": {},
    "version": 1
  },
  "userdoc": {
    "kind": "user",
    "methods": {},
    "version": 1
  }
}